:060000000A128A11EE2F26
:100F1A00C034F934A434B034993492348234F83475
:100F2A00803490347E088A007F0882000A128A116F
:100F3A0097270A128A118000840A04087D06031979
:100F4A000034FF0A0319FE0A9B2F83160313870135
:100F5A00831203138701203084002C30F000040828
:100F6A00F1000A30F2007008840083130008F300CD
:100F7A00F00A7108840073088000F10AF20BB82F96
:100F8A00AA01AB012A08203E8400831300088700C7
:100F9A001A30F2005E30F1006E30F000F00BD32F01
:100FAA00F10BD32FF20BD32F00000130831203135E
:100FBA00AA070318AB0A0030AB0700302B020A302D
:100FCA0003192A02031CEA2FEB2FC72F0A128A11D0
:100FDA00002883133630FD000730FE008D30FF00F5
:100FEA002C3084000A128A119B270A128A11830163
:060FFA000A128A11AA2F61
:02400E00FA3F77
:00000001FF
